:020000040800F2
:10000000580A0020C1130008190200081B0200084A
:100010001F02000823020008270200080000000059
:100020000000000000000000000000002B0200089B
:100030002D020008000000002F0200083102000815
:10004000DB130008DB130008DB130008DB130008D8
:10005000DB130008DB130008DB130008DB130008C8
:10006000DB130008DB130008DB130008DB130008B8
:10007000DB130008DB130008DB130008DB130008A8
:10008000DB130008DB130008DB130008DB13000898
:10009000DB130008DB130008DB130008DB13000888
:1000A000DB130008DB130008DB130008DB13000878
:1000B00099130008DB13000881130008DB13000804
:1000C000DB130008DB130008DB130008DB13000858
:1000D000DB13000887050008DB130008DB130008AA
:1000E000DB130008DB130008DB13000800F002F844
:1000F00000F05AF80AA090E8000C82448344AAF168
:100100000107DA4501D100F04FF8AFF2090EBAE865
:100110000F0013F0010F18BFFB1A43F0010318473B
:10012000403C0000603C00000A444FF0000C10F816
:10013000013B13F0070408BF10F8014B1D1108BF65
:1001400010F8015B641E05D010F8016B641E01F805
:10015000016BF9D113F0080F1EBF10F8014BAD1C55
:100160000C1B09D16D1E58BF01F801CBFAD505E073
:1001700014F8016B01F8016B6D1EF9D59142D6D3CD
:10018000704700000023002400250026103A28BFF5
:1001900078C1FBD8520728BF30C148BF0B607047F9
:1001A0001FB51FBD10B510BD02F02FFE1146FFF7A1
:1001B000F7FF00F008F802F04DFE03B4FFF7F2FF7E
:1001C00003BC00F093F90024002500F023F900F0AF
:1001D0008BF94FF4E13000F098F900F084FF00F063
:1001E00009FB01F011F801F05CF814E0022001F0C5
:1001F000A2F80446042001F09EF84542224632212E
:10020000012000F02FFE2A4614210E2000F02AFEC5
:100210000A2000F03CF9E9E7704700BFFEE700BFA5
:10022000FEE700BFFEE700BFFEE77047704770477C
:10023000704700000CB50020019000906C480068E9
:1002400040F480306A49086000BF6948006800F4E3
:10025000003000900198401C0190009818B9019856
:10026000B0F5A06FF1D16248006800F4003010B121
:100270000120009001E0002000900098012843D167
:100280005C48006840F010005A4908600846006861
:1002900020F0030008600846006840F00200086093
:1002A00053484068524948600846406848600846DC
:1002B000406840F4806048600846406820F47C1044
:1002C00048600846406840F4E81048600846006806
:1002D00040F08070086000BF4548006800F0007082
:1002E0000028F9D04248406820F0030040494860A7
:1002F0000846406840F00200486000BF3C48406843
:1003000000F00C000828F9D10CBD10B5FFF792FFE2
:1003100010BD10B53648006840F00100344908604F
:10032000084640683449084031494860084600683A
:10033000324908402E4908600846006820F48020B1
:1003400008600846406820F4FE0048604FF41F0033
:100350008860FFF7DAFF4FF000602949086010BDA0
:1003600010B5002100200022214B5B6803F00C0136
:1003700021B1042906D0082928D107E0214B224CBD
:10038000236027E01F4B204C236023E0184B5B6861
:1003900003F47010164B5B6803F48032022303EB06
:1003A000904022B9194B4343174C23600DE0104B8A
:1003B0005B6803F4003323B1144B4343124C2360B6
:1003C00003E0104B4343104C236003E00D4B0E4CF5
:1003D000236000BF00BF064B5B68C3F303130C4CE4
:1003E000E15C094B1B68CB40074C236010BD00004B
:1003F00000100240002002400000FFF8FFFFF6FE60
:1004000008ED00E000127A000000002000093D0025
:100410000400002010B56FF0040001F040F82E48F1
:1004200000682E49B0FBF1F02D49087008460078AD
:1004300000EB4001C1EBC0104FF6FF7101EAC000B4
:100440002849088010BD0146254A12784A434FF0DA
:10045000E0235A6100229A611A46126942F00102B1
:100460001A6100BF4FF0E022106900F001021AB1DA
:1004700000F48032002AF5D04FF0E022126922F019
:1004800001024FF0E0231A6100229A617047014691
:10049000144A12884A434FF0E0235A6100229A61BD
:1004A0001A46126942F001021A6100BF4FF0E022C1
:1004B000106900F001021AB100F48032002AF5D070
:1004C0004FF0E022126922F001024FF0E0231A619E
:1004D00000229A61704700000000002000127A009C
:1004E000140000201600002070470000014600BFE5
:1004F000704700BF424A128802F04002002AF9D039
:10050000C2B23F4B1B1D1A80704710B586B004461F
:10051000012144F2050001F0FDFA4FF40070ADF83E
:10052000140003208DF8160018208DF8170005A977
:10053000344801F033F84FF48060ADF81400042023
:100540008DF8170005A92F4801F028F80194002024
:10055000ADF80800ADF80A00ADF80C00ADF81000D9
:100560000C20ADF80E0001A9254802F088FA0122FE
:1005700040F22551224802F01AFB0121204802F0E6
:100580000AFB06B010BD10B540F225511C4802F020
:10059000F3FB10B31A4802F06FFBC4B21A4800789C
:1005A00000F08000C8B91848007800F0400060B141
:1005B0000A2C03D000201449087020E0124800786B
:1005C00040F080001049087019E00D2C06D10E484B
:1005D000007840F040000C49087010E00A480078AC
:1005E00000F03F0009490C5407480078401C0649B8
:1005F0000870084600783F2801DD0020087010BD13
:1006000000380140000801401C000020B403002015
:1006100010B51021F84801F06EF82021F64801F0DD
:100620006AF82021F44801F068F81021F24801F03E
:1006300064F810BD10B51021EF4801F05CF82021DE
:10064000ED4801F05AF82021EB4801F054F810BDB4
:1006500010B51021E84801F04EF81021E64801F0ED
:100660004CF810BD2DE9F04105462C461021E2481A
:1006700001F043F8002619E0274607F08007802F95
:1006800004D12021DC4801F036F803E02021DA48CB
:1006900001F033F86006040E1021D74801F02BF862
:1006A0001021D54801F029F8701CC6B2082EE3DBF2
:1006B000BDE8F08110B50446FFF7AAFF7820FFF7E8
:1006C000D1FFFFF7C5FF0020FFF7CCFFFFF7C0FF0A
:1006D0002046FFF7C7FFFFF7BBFFFFF7ABFF10BDDB
:1006E00010B50446FFF794FF7820FFF7BBFFFFF734
:1006F000AFFF4020FFF7B6FFFFF7AAFF2046FFF746
:10070000B1FFFFF7A5FFFFF795FF10BD70B50446D9
:100710000D461DB1E0B2FFF7E3FF02E0E0B2FFF7E4
:10072000C9FF70BD70B50646002418E004F1B000A2
:100730000021FFF7EBFF00210846FFF7E7FF00214C
:100740001020FFF7E3FF002505E001213046FFF709
:10075000DDFF681CC5B2802DF7DB601CC4B2082C1D
:10076000E4DB70BD06E041F6650100E0491E0029AA
:10077000FCD1401E0028F6D17047014605E000205C
:1007800001E0421CD0B27B28FBDB0A1EA1F1010173
:10079000F5D1704770B504460D4605F1B000002153
:1007A000FFF7B4FF102141EA14100021FFF7AEFF5C
:1007B00004F00F000021FFF7A9FF70BD10B5002164
:1007C0008D20FFF7A3FF00211420FFF79FFF0021DA
:1007D000AF20FFF79BFF10BD10B500218D20FFF764
:1007E00095FF00211020FFF791FF0021AE20FFF7B9
:1007F0008DFF10BD70B5002418E004F1B000002199
:10080000FFF784FF00210846FFF780FF002110203A
:10081000FFF77CFF002505E001210020FFF776FFB0
:10082000681CC5B2802DF7DB601CC4B2082CE4DB69
:1008300070BD70B5002418E004F1B0000021FFF78E
:1008400065FF00210846FFF761FF00211020FFF738
:100850005DFF002505E001210846FFF757FF681CF2
:10086000C5B2802DF7DB601CC4B2082CE4DB70BD80
:100870002DE9F04707460E4690469946002500248C
:10088000A8F12000C5B27F2F02DD0027B01CC6B240
:10089000B9F1100F24D131463846FFF77BFF002411
:1008A00008E004EB0511554A505C0121FFF72EFFCB
:1008B000601CC4B2082CF4DB701CC1B23846FFF7D0
:1008C00069FF002409E004EB051108314B4A505C34
:1008D0000121FFF71BFF601CC4B2082CF3DB12E000
:1008E00031463846FFF756FF00240AE005EB450184
:1008F000434A02EB4101085D0121FFF707FF601C3D
:10090000C4B2062CF2DBBDE8F08710B50246012028
:1009100000E050430B1EA1F10104E1B2F9D110BD7A
:100920002DE9FF5F074691461E460E9D4FF0000AD7
:10093000002435E0301B401EC1B20A20FFF7E5FF5E
:10094000B9FBF0F00A21B0FBF1F201FB1208BAF199
:10095000000F14D1701EA04211DDB8F1000F0CD1B0
:10096000AB4605EBDB71491001FB0471C8B22B46A5
:1009700020220199FFF77CFF10E04FF0010AAB46FF
:1009800005EBDB71491001FB0471C8B208F13001BD
:10099000CAB22B460199FFF76BFF00BF601CC4B2BF
:1009A000B442C7DBBDE8FF9F2DE9F04105460E4686
:1009B00014461F460EE022783B4631462846FFF794
:1009C00057FF05F10800C5B2782D02DD0025B01CE7
:1009D000C6B2641C20780028EDD1BDE8F0812DE975
:1009E000F04180460E461546002731464046FFF747
:1009F000D1FE002411E0000000080140703700081B
:100A000048350008F74A02EB8511085D0121FFF720
:100A10007DFE781CC7B2601CC4B2102CF2DB701CC7
:100A2000C1B24046FFF7B6FE00240CE06900491C45
:100A3000EC4A02EB4111085D0121FFF767FE781CCB
:100A4000C7B2601CC4B2102CF0DBBDE8F0812DE908
:100A5000F05F06460F4690461C46DDF828A04FF092
:100A6000000BE11704EB5171C910A4EBC10131B9BE
:100A70002046E11704EB5171C1F3C70506E020469B
:100A8000E11704EB5171C910491CCDB23D4615E088
:100A900029463046FFF77EFEB1460BE059460BF182
:100AA000010B1AF801000121FFF730FE09F10100E6
:100AB00000F0FF09C145F1DB681CC5B2A542E7DBC8
:100AC000BDE8F09F2DE9FF5F86B014461D464FF04C
:100AD000010A00200390049005904FF001090026C0
:100AE00000BF8346002213462046294602F0FCFA46
:100AF00009D285F00040CDE900402046019902F07E
:100B00006BFA064604E02046294602F065FA0646DE
:100B1000304602F0BEFA22462B46CDE9000102F033
:100B20001DFC074688460022AF4B3846414602F07E
:100B300017FBCDE9000102F07FFA834607E009EBDD
:100B400089004FEA40090AF1010000F0FF0A0A207B
:100B500096FBF0F090FBF9F00028F0D142F2107013
:100B600096FBF0F00A2190FBF1F201FB1200C0B2FB
:100B70008DF80C004FF47A7096FBF0F090FBF1F2D8
:100B800001FB1200C0B28DF80D00642096FBF0F05E
:100B900090FBF1F201FB1200C0B28DF80E000A20AA
:100BA00096FBF0F090FBF1F201FB1200C0B28DF861
:100BB0000F000A2096FBF0F100FB1160C0B28DF827
:100BC00010002E208DF811004FF47A70BBFBF0F06E
:100BD0000A21B0FBF1F201FB12008DF81200642033
:100BE000BBFBF0F0B0FBF1F201FB12008DF813003B
:100BF0000A20BBFBF0F0B0FBF1F201FB12008DF814
:100C000014000A20BBFBF0F100FB11B08DF81500B9
:100C100000211498801D03AA1154894608E003A8F6
:100C200010F80900303003A901F8090009F10109A1
:100C3000B9F10A0FF3DB002213462046294602F0E1
:100C400053FA08D20AF1010000F0FF0A2D20CAF180
:100C5000050103AA50542E208DF81100002114988C
:100C6000801D03AA1154CAF1050003A942180C23E0
:100C7000DDE90610FFF798FE0AB0BDE8F09F2DE908
:100C8000F04F89B08246894617469846DDF84CB049
:100C90000120079000200490059006900124002573
:100CA00000BF00264FEAC9604FEA10693846414646
:100CB00002F092F90546284602F002FA3A46434607
:100CC000CDE9000102F04AFBCDE902010022464BCA
:100CD000DDE9020102F044FACDE9000102F0ACF9CD
:100CE000064606E004EB840044000798401CC0B2AE
:100CF00007900A20B5FBF0F0B0FBF4F00028F1D12A
:100D000042F21070B5FBF0F00A21B0FBF1F201FBEA
:100D100012008DF810004FF47A70B5FBF0F0B0FBC4
:100D2000F1F201FB12008DF811006420B5FBF0F028
:100D3000B0FBF1F201FB12008DF812000A20B5FBA6
:100D4000F0F0B0FBF1F201FB12008DF813002E2041
:100D50008DF815004FF47A70B6FBF0F0B0FBF1F2AD
:100D600001FB12008DF816006420B6FBF0F0B0FB1A
:100D7000F1F201FB12008DF817000A20B6FBF0F02B
:100D8000B0FBF1F201FB12008DF818000A20B6FB4F
:100D9000F0F100FB11608DF8190000210BF1060045
:100DA00004AA1154002405E004A8005D303004A911
:100DB0000855641C0A2CF7DB2E208DF81500002145
:100DC0000BF1060004AA11541298C0F1050004A901
:100DD00042180C2351464846FFF7E6FD09B0BDE82E
:100DE000F08F00001D0000200088C3402DE9F04175
:100DF00005460F46164600BF05EB45014906080E9D
:100E00003946FFF7C7FC00240BE006F1100101EBA7
:100E10004101FA4A02EB4101085D0121FFF776FC2E
:100E2000641C062CF1DBBDE8F0812DE9F04105469C
:100E30000F46164600BF05EB45014906080E394628
:100E4000FFF7A8FC002409E006EB4601EB4A02EBA1
:100E50004101085D0121FFF759FC641C062CF3DBFE
:100E6000BDE8F0812DE9F04705468946164634462F
:100E7000002C22DA6442642094FBF0F100FB114064
:100E80000A2190FBF1F0C7B20A2094FBF0F100FBBD
:100E9000114000F0FF080D2249462846FFF7C5FF24
:100EA000691CC8B23A464946FFF7A0FFA91CC8B260
:100EB00042464946FFF79AFF20E0642094FBF0F198
:100EC00000FB11400A2190FBF1F0C7B20A2094FB0D
:100ED000F0F100FB114000F0FF080B2249462846C4
:100EE000FFF7A3FF691CC8B23A464946FFF77EFFE9
:100EF000A91CC8B242464946FFF778FFBDE8F08713
:100F00002DE9F04705468A4616463446002C2DDA70
:100F100064420D2251462846FFF787FF0A2094FBC2
:100F2000F0F100FB1140C7B20A2094FBF0F00A2157
:100F300090FBF1F201FB120000F0FF08642094FB2B
:100F4000F0F000F0FF09E91CC8B23A465146FFF73D
:100F50004DFFA91CC8B242465146FFF747FF691C26
:100F6000C8B24A465146FFF741FF2BE00B225146DB
:100F70002846FFF75AFF0A2094FBF0F100FB1140CE
:100F8000C7B20A2094FBF0F00A2190FBF1F201FBBA
:100F9000120000F0FF08642094FBF0F000F0FF095D
:100FA000E91CC8B23A465146FFF720FFA91CC8B257
:100FB00042465146FFF71AFF691CC8B24A465146DD
:100FC000FFF714FFBDE8F0872DE9F05F05468B467B
:100FD00016463446002C00DA64424FF47A7094FBD3
:100FE000F0F0C7B24FF47A7094FBF0F100FB1140BF
:100FF000642190FBF1F000F0FF08642094FBF0F115
:1010000000FB11400A2190FBF1F000F0FF090A20DB
:1010100094FBF0F100FB114000F0FF0A3A465946FC
:101020002846FFF7E3FE691CC8B242465946FFF75F
:10103000DDFEA91CC8B24A465946FFF7D7FEE91C97
:10104000C8B252465946FFF7D1FEBDE8F09F2DE9E0
:10105000F05F05460E46144642F21070B4FBF0F005
:10106000C7B242F21070B4FBF0F100FB11404FF434
:101070007A71B0FBF1F000F0FF080846B4FBF0F124
:1010800000FB11406421B0FBF1F000F0FF09642087
:10109000B4FBF0F100FB11400A21B0FBF1FA0A2089
:1010A000B4FBF0F100FB114B3A4631462846FFF7FE
:1010B0009DFE691CC8B242463146FFF797FEA91C47
:1010C000C8B24A463146FFF791FEE91CC8B2524603
:1010D0003146FFF78BFE291DC8B25A463146FFF74D
:1010E00085FEBDE8F09F08B50121052000F012FD46
:1010F0000121434800F023FB3020ADF80000102010
:101100008DF8030003208DF8020069463D4800F089
:1011100045FA30213B4800F0EEFA4FF44870FFF7F3
:10112000B6F90021AE20FFF7F1FA00210846FFF7DB
:10113000EDFA00211020FFF7E9FA00214020FFF727
:10114000E5FA0021B020FFF7E1FA00218120FFF746
:10115000DDFA0021FF20FFF7D9FA0021A120FFF7D7
:10116000D5FA0021A620FFF7D1FA0021A820FFF729
:10117000CDFA00213F20FFF7C9FA0021C820FFF770
:10118000C5FA0021D320FFF7C1FA00210846FFF776
:10119000BDFA0021D520FFF7B9FA00218020FFF722
:1011A000B5FA0021D820FFF7B1FA00210520FFF79A
:1011B000ADFA0021D920FFF7A9FA0021F120FFF7AD
:1011C000A5FA0021DA20FFF7A1FA00211220FFF78B
:1011D0009DFA0021DB20FFF799FA00213020FFF76C
:1011E00095FA00218D20FFF791FA00211420FFF7D6
:1011F0008DFA0021AF20FFF789FA08BD48350008B5
:10120000000230000008014000B587B00121084607
:1012100000F08DFC0121042000F07CFC0320ADF8DF
:10122000000004208DF803006946614800F0B6F91B
:1012300004A801F0D3F80020ADF810004FF6FF70BD
:10124000ADF814000020ADF81600ADF8120004A9A6
:101250004FF0804000F096FD00231A4603214FF026
:10126000804001F09EF901A801F0CBF80A20ADF80A
:101270000C0001A9400701F018F80121880701F0CE
:10128000A3FB01221146900701F0F3F800214FF073
:10129000804001F067FB0121880701F0CFF807B01B
:1012A00000BD00B587B00121042000F040FC012101
:1012B000082000F02FFCC020ADF8000004208DF8BD
:1012C000030069463B4800F069F904A801F086F87C
:1012D0000020ADF810004FF6FF70ADF814000020AC
:1012E000ADF81600ADF8120004A9334800F04AFD2D
:1012F00000231A460321304801F053F901A801F0F8
:1013000080F80A20ADF80C0001A92B4800F0CDFFB1
:101310000121294801F058FB01221146264801F01D
:10132000A8F80021244801F01DFB0121224801F00A
:1013300085F807B000BD0146022904D003290BD06F
:10134000042919D10FE04FF08042928C10B2002294
:101350004FF080439A8411E0184A128810B200229C
:10136000164B1A800AE0144A2432128810B2002266
:10137000114B24331A8001E0002000BF00BF7047EA
:101380000D48103000880C481030008820F0010013
:1013900009491031088070474FF08040008A4FF0B3
:1013A0008040008A20F001004FF0804108827047A1
:1013B00000080140000C01400008004024040040E7
:1013C0000948804709480047FEE7FEE7FEE7FEE7D9
:1013D000FEE7FEE7FEE7FEE7FEE7FEE70448054915
:1013E000054A064B7047000013030008ED00000893
:1013F00058040020580A00205806002058060020F3
:1014000031490143314A1160704770B50021002312
:101410000F22C47804B32D4C246804F4E064C4F5AE
:10142000E064210AC1F10403CA40447804FA03F1DC
:101430008478144021430901254C0678A15504788D
:1014400004F01F050124AC4005786D11AD0005F1D5
:10145000E025C5F8004109E0047804F01F050124E7
:10146000AC401C4D0678761145F8264070BD1A4AEE
:101470000A400243154B1B1F1A60704739B1134ACB
:10148000121D12680243114B1B1D1A6006E00F4A21
:10149000121D126882430D4B1B1D1A6070470428F1
:1014A00008D14FF0E021096941F004014FF0E0223A
:1014B000116107E04FF0E021096921F004014FF0CC
:1014C000E0221161704700000000FA050CED00E019
:1014D00000E400E080E100E080FFFF1F10B504465B
:1014E000CC48844208D10121042000F02DFB0021CA
:1014F000042000F029FB46E0C748844208D10121BE
:10150000082000F021FB0021082000F01DFB3AE03C
:10151000C248844208D10121102000F015FB0021AF
:10152000102000F011FB2EE0BD48844208D10121BB
:10153000202000F009FB0021202000F005FB22E024
:10154000B848844208D10121402000F0FDFA002172
:10155000402000F0F9FA16E0B348844208D1012196
:10156000802000F0F1FA0021802000F0EDFA0AE07E
:10157000AE48844207D10121801500F0E5FA002130
:10158000A01500F0E1FA10BD10B50121084600F0E9
:10159000DBFA0021012000F0D7FA10BD2DE9F0415F
:1015A000024600250026002000230024002791F891
:1015B00003C00CF00F0591F803C00CF0100CBCF147
:1015C000000F03D091F802C04CEA050591F800C065
:1015D000BCF1000F31D0146800202BE04FF0010C5B
:1015E0000CFA00F3B1F800C00CEA03069E4220D1C9
:1015F00083004FF00F0C0CFA03F7BC4305FA03FC11
:101600004CEA040491F803C0BCF1280F06D14FF056
:10161000010C0CFA00FCC2F814C00AE091F803C0F7
:10162000BCF1480F05D14FF0010C0CFA00FCC2F8D8
:1016300010C0401C0828D1D31460B1F800C0BCF120
:10164000FF0F34DD546800202EE000F1080C4FF04D
:10165000010808FA0CF3B1F800C00CEA03069E4238
:1016600021D183004FF00F0C0CFA03F7BC4305FAAD
:1016700003FC4CEA040491F803C0BCF1280F05D127
:1016800000F1080C08FA0CF8C2F8148091F803C0B5
:10169000BCF1480F07D100F1080C4FF0010808FA1F
:1016A0000CF8C2F81080401C0828CED35460BDE866
:1016B000F0814FF6FF710180022181700421C17019
:1016C00070470246002093680B400BB1012000E0F8
:1016D000002070470146886880B2704702460020AB
:1016E000D3680B400BB1012000E000207047014699
:1016F000C86880B2704701617047416170470AB1A4
:10170000016100E041617047C16070474FF4803271
:101710000A438261816182618269826970470246FF
:101720000020434B18684FF68073184040EA0210BF
:1017300008433F4B186070473E49C8617047F0B599
:101740000A46002300240021002500F00046B6F1DF
:10175000004F02D1364EF16901E0354E7168C0F399
:10176000034583B200F44016B6F5401F08D121F0BE
:1017700070612F4E766826F070662D4F7E6012E005
:1017800000F48016B6F5801F06D1032606FA05F48C
:10179000A14341F0706106E0460D360103FA06F6FA
:1017A000B14341F0706122B1460D360103FA06F6ED
:1017B000314300F00046B6F1004F02D11C4EF161FA
:1017C00001E01B4E7160F0BD30B500228B071C0F8D
:1017D0000F2303FA04F2164B08338C1053F824300D
:1017E0009343134C08348D1044F8253023468C1055
:1017F00053F824308C07240F00FA04F423430C4CD4
:1018000008348D1044F8253030BD0A49DC310860B9
:101810007047000000080140000C0140001001402A
:101820000014014000180140001C0140002001404C
:101830000000014000002042DF48006840F0010045
:10184000DD49086008464068DC490840DA494860DC
:1018500008460068DA490840D74908600846006829
:1018600020F4802008600846406820F4FE004860AC
:101870004FF41F0088607047CF49096821F4803118
:10188000CD4A11601146096821F480211160B0F53C
:10189000803F03D0B0F5802F0ED106E0C64909681D
:1018A00041F48031C44A116007E0C349096841F43A
:1018B000A021C14A116000E000BF00BF704710B511
:1018C00001460022002300204A11012A02D1BA4C0D
:1018D000236806E0022A02D1B74C236A01E0B64C25
:1018E000636A01F01F02012494401C400CB10120E6
:1018F00000E0002010BD38B5002000900024002535
:1019000000BF3120FFF7DBFF05460098401C009028
:101910000098B0F5A06F01D0002DF2D03120FFF774
:10192000CEFF08B1012400E00024204638BD014666
:101930000020A14A106820F0F80040EAC1001060C1
:101940007047A04908607047024600209A4B5868CB
:1019500020F47C1042EA01031843974B586070470B
:1019600098490866704701460020934A506820F065
:1019700003000843506070478F48406800F00C0037
:101980007047014600208C4A506820F0F000084360
:101990005060704701460020874A506820F4E0609C
:1019A00008435060704701460020834A506820F485
:1019B000605040EAC1005060704729B17E4A527AB7
:1019C00002437D4B5A7204E07B4A527A82437A4B3F
:1019D0005A7270477B49D831086070470146002031
:1019E000754A506820F44040084350607047002119
:1019F000714A20321170704A82F82010012802D0FA
:101A000004280AD104E001216B4A2032117005E05C
:101A10000521694A2032117000E000BF00BF704705
:101A20006949086070476449096A0143624A116262
:101A30007047654944390860704730B5002100227D
:101A4000002400235C4D6D6805F00C0121B10429D0
:101A500005D0082923D105E05C4D056022E05B4DEF
:101A600005601FE0544D6D6805F47012524D6D68AD
:101A700005F48034022505EB92421CB9544D5543C0
:101A800005600BE04C4D6D6805F400351DB1504DFF
:101A90005543056002E04D4D5543056002E04B4D56
:101AA000056000BF00BF444D6D6805F0F0010909F5
:101AB000484D6B5C0568DD4045603F4D6D6805F441
:101AC000E061090A434D6B5C4568DD4085603A4D35
:101AD0006D6805F46051C90A3E4D6B5C4568DD4098
:101AE000C560354D6D6805F44041890B3A4D6B5C1E
:101AF000C568B5FBF3F5056130BD29B12E4A5269C1
:101B000002432D4B5A6104E02B4A526982432A4B0F
:101B10005A61704729B1284A92690243264B9A615B
:101B200004E0254A92698243234B9A61704729B1A8
:101B3000214AD2690243204BDA6104E01E4AD2698D
:101B400082431D4BDA61704729B11B4AD2680243B8
:101B5000194BDA6004E0184AD2688243164BDA6007
:101B6000704729B1144A12690243134B1A6104E009
:101B7000114A12698243104B1A6170471249403969
:101B8000086070470F49C86470470B49C8717047B7
:101B90000948406A40F08070074948627047014632
:101BA0000020054A92680A400AB1012000E00020A6
:101BB0007047014988727047001002400000FFF82A
:101BC000FFFFF6FE000042428004424200127A000B
:101BD00000093D009D030020AD03002010B5044620
:101BE000FE48844208D10121C014FFF7ADFF002157
:101BF000E014FFF7A9FFC4E0B4F1804F08D1012140
:101C00000846FFF7AEFF00210120FFF7AAFFB8E06A
:101C1000F348844208D101210220FFF7A2FF0021EE
:101C20000220FFF79EFFACE0EE48844208D101217C
:101C30000420FFF796FF00210420FFF792FFA0E0A9
:101C4000E948844208D101210820FFF78AFF0021DA
:101C50000820FFF786FF94E0E448844208D1012180
:101C60001020FFF77EFF00211020FFF77AFF88E0A9
:101C7000DF48844208D101212020FFF772FF0021B4
:101C80002020FFF76EFF7CE0DA48844208D1012172
:101C90004014FFF759FF00216014FFF755FF70E073
:101CA000D548844209D10121C804FFF74DFF002126
:101CB0004FF40020FFF748FF63E0D048844209D189
:101CC00001210805FFF740FF00214FF48010FFF7C6
:101CD0003BFF56E0CA48844209D101214805FFF77D
:101CE00033FF00214FF40010FFF72EFF49E0C548F5
:101CF000844208D101214020FFF733FF002140201A
:101D0000FFF72FFF3DE0C048844208D10121802029
:101D1000FFF727FF00218020FFF723FF31E0BB48BA
:101D2000844208D101218015FFF71BFF0021A01577
:101D3000FFF717FF25E0B648844209D101210804C6
:101D4000FFF702FF00214FF48030FFF7FDFE18E09F
:101D5000B048844209D101214804FFF7F5FE002173
:101D60004FF40030FFF7F0FE0BE0AB48844208D19F
:101D700001218804FFF7E8FE00214FF48020FFF7DF
:101D8000E3FE10BD00220288944B98420ED0994B7E
:101D900098420BD0B0F1804F08D0914B984205D0BB
:101DA000904B984202D0904B984204D14FF68F73DB
:101DB0001A404B881A438D4B984207D08C4B98425F
:101DC00004D04FF6FF431A40CB881A4302808B8819
:101DD00083850B880385814B98420BD0854B9842B5
:101DE00008D08B4B984205D08A4B984202D08A4B40
:101DF000984201D10B7A038601238382704770B524
:101E0000002400220023058C4FF6FE763540058421
:101E1000028C8388048B4FF68F752C40B51E2C40A6
:101E20000D882C43751E2A400D892A434D882A436C
:101E30006A4DA8420BD06F4DA84208D0744DA842FD
:101E400005D0744DA84202D0734DA84213D14FF66D
:101E5000F7752A404D892A434FF6FB752A408D8835
:101E60002A434FF6FF652B404FF6FF552B408D89D7
:101E70002B43CD892B4383800483CD8885860284C0
:101E800070BD70B5002400220023058C4FF6EF765C
:101E900035400584028C8388048B48F6FF752C40FE
:101EA0004FF6FF452C400D884FF6FF7606EA0525D4
:101EB0002C434FF6DF752A400D8906EA05152A43A3
:101EC0004D8806EA05152A43444DA84202D0494DE3
:101ED000A8421DD14FF67F752A404D894FF6FF76F7
:101EE00006EA05152A434FF6BF752A408D8806EA93
:101EF00005152A434FF6FF352B404FF2FF752B4057
:101F00008D8906EA85052B43CD8906EA85052B4395
:101F100083800483CD880587028470BD70B500245A
:101F200000220023058C4FF6FF6635400584028CA5
:101F30008388848B4FF68F752C404FF6FC752C40B0
:101F40000D882C434FF6FF552A400D894FF6FF763A
:101F500006EA05252A434D8806EA05252A431F4D32
:101F6000A84202D0234DA8421DD14FF2FF752A404E
:101F70004D894FF6FF7606EA05252A434FF6FF35D1
:101F80002A408D8806EA05252A434EF6FF752B4028
:101F90004DF6FF752B408D8906EA05152B43CD893B
:101FA00006EA05152B4383808483CD8885870284C8
:101FB00070BD70B5002200230024058C4EF6FF761C
:101FC00035400584038C8488828B48F6FF752A404F
:101FD0004FF6FF452A400D8820E00000002C01400C
:101FE0000004004000080040000C004000100040C9
:101FF0000014004000340140004C014000500140FA
:102000000054014000180040001C00400020004027
:102010000040014000440140004801404FF6FF7677
:1020200006EA05252A434DF6FF752B400D8906EA81
:1020300005352B434D8806EA05352B43FA4DA8425A
:1020400002D0FA4DA84208D14BF6FF752C408D897D
:102050004FF6FF7606EA85152C4384808283CD886F
:10206000A0F84050038470BD828B4FF2FF331A40BA
:102070008283828B4FF6FF7303EA01231A43828324
:102080007047F0B50C461546002200210026078C4B
:102090004EF6FF7C07EA0C070784828B018C4FF613
:1020A000FF7707EA043640F6FF473A404FF6FF77DE
:1020B00007EA05273A434FF6FF7707EA03373A4323
:1020C000D94FB8420ED0D94FB8420BD0B0F1804FA3
:1020D00008D0D74FB84205D0D64FB84202D0D64F1D
:1020E000B84206D14DF6FF77394046F48057394360
:1020F00005E047F6FF57394044F48057394382835F
:102100000184F0BD828B4FF6F3731A408283828B79
:102110000A4382837047F0B50C4615460022002121
:102120000026078C4FF6FF6C07EA0C070784828BAA
:10213000018C4FF6FF7707EA04264FF60C773A40FA
:102140004FF6FF7707EA03172F433A43B64FB842DB
:102150000ED0B64FB8420BD0B0F1804F08D0B44F7C
:10216000B84205D0B34FB84202D0B34FB84206D1FF
:102170004FF6FF57394046F48077394305E04FF278
:10218000FF57394044F48077394382830184F0BD9E
:10219000028B4FF2FF331A400283028B4FF6FF731C
:1021A00003EA01231A4302837047F0B50C46154633
:1021B000002200210026078C4FF6EF7C07EA0C076F
:1021C0000784028B018C4FF6FF7707EA041640F66E
:1021D000FF473A404FF6FF7707EA03373A434FF697
:1021E000FF7707EA05273A438F4FB8420ED08F4F4B
:1021F000B8420BD0B0F1804F08D08D4FB84205D017
:102200008C4FB84202D08C4FB84206D14FF6DF77E0
:10221000394046F01007394305E04FF65F77394003
:1022200044F01007394302830184F0BD028B4FF65E
:10223000F3731A400283028B0A4302837047F0B59E
:102240000C46154600220021068C4FF6FE773E40D4
:102250000684028B018C4FF60C7632407E1C06EA17
:1022600003162E433243704EB0420ED06F4EB04232
:102270000BD0B0F1804F08D06D4EB04205D06D4EFE
:10228000B04202D06C4EB04206D14FF6FD763140DE
:1022900044F00106314305E04FF6F576314044F055
:1022A0000106314302830184F0BD70B505460C463A
:1022B0005D4885420ED05D4885420BD0B5F1804F18
:1022C00008D05B48854205D05A48854202D05A481A
:1022D000854200D100E000BF208850B92389A28840
:1022E00061882846FFF7ABFFE1882846FFF79EFF8D
:1022F00025E0208804280AD12389A28861882846FD
:10230000FFF753FFE1882846FFF742FF17E02088D8
:1023100008280AD12389A28861882846FFF7FBFE96
:10232000E1882846FFF7EEFE09E02389A28861884C
:102330002846FFF7A6FEE1882846FFF795FE70BD08
:102340002DE9F04105460C4600260127608808B9B2
:10235000022600E00026A088012801D1022700E023
:1023600001272088A0B92389A28861882846FFF721
:1023700066FFE1882846FFF759FF23893A46314630
:102380002846FFF712FFE1882846FFF701FF13E018
:102390002389A28861882846FFF707FFE18828463D
:1023A000FFF7F6FE23893A4631462846FFF747FFF6
:1023B000E1882846FFF73AFFBDE8F0810A884B889C
:1023C0001A438B881A43CB881A430B891A434B89CB
:1023D0001A438B891A43A0F8442070474FF6FF71C7
:1023E000818000210180C1804180017270470021FD
:1023F000018041808180C180018141818181C181D1
:102400007047002101804180012181800021C1802D
:10241000018170470021018041808180C18001815C
:102420004181818170470000002C0140003401404F
:102430000004004000080040000C004021B1028868
:1024400042F00102028004E002884FF6FE731A4057
:102450000280704731B1B0F8442042F40042A0F845
:10246000442005E0B0F84420C2F30E02A0F8442056
:1024700070471AB183890B43838102E083898B43C0
:10248000838170478182704741EA0203A0F8483097
:1024900070471AB183890B43838102E083898B43A0
:1024A0008381704701894FF6F872114001817047AE
:1024B0000A46002101894FF68F73194011430181AB
:1024C000704730B504460D4629462046FFF7F0FF19
:1024D000208940F00700208130BD2DE9F0410446FD
:1024E0000D4616461F46602D06D13B460122314659
:1024F0002046FFF75AFE05E03B46012231462046C2
:10250000FFF79DFE29462046FFF7D2FF208940F0C5
:1025100007002081BDE8F08130B50C46002101891B
:10252000C9B24FF6FF7505EA032515432543294334
:10253000018130BD2DE9F04105460E46174698460B
:10254000002443463A4631462846FFF7E5FF2C89EA
:102550004FF6F870044044F007044FF68F700440C3
:1025600044F070042C81BDE8F081F0B504460D46BE
:1025700016461F463B46324629462046FFF7CCFF0B
:10258000208940F480402081F0BD0185828270471F
:102590000A46002101884FF68F73194011430180CC
:1025A0007047F0B50C4615461E4600210022002358
:1025B0000189028B038C4FF6F877394021434FF69F
:1025C000FC473A4040F201173A434FF6DD773B4073
:1025D0004FF6FF7707EA06172F433B43018102833B
:1025E0000384F0BD0A460021018B4FF68F7319401A
:1025F0001143018370470A460021018B48F6FF739F
:1026000019404FF6FF7303EA022319430183704711
:102610000A460021818B4FF68F7319401143818345
:1026200070470A460021818B48F6FF7319404FF628
:10263000FF7303EA022319438183704721B10288A3
:1026400042F08002028004E002884FF67F731A4055
:102650000280704721B1828842F00402828004E047
:1026600082884FF6FB731A408280704721B18288BE
:1026700042F00802828004E082884FF6F7731A4025
:102680008280704721B1828842F00102828004E09A
:1026900082884FF6FE731A40828070470A460021F6
:1026A000018B4FF6F77319401143018370470A46B7
:1026B0000021018B4FF2FF7319404FF6FF7303EABD
:1026C00002231943018370470A460021818B4FF68C
:1026D000F77319401143818370470A460021818BAB
:1026E0004FF2FF7319404FF6FF7303EA02231943B9
:1026F000818370470A460021018B4FF6FB73194016
:102700001143018370470A460021018B4FF6FF33C6
:1027100019404FF6FF7303EA022319430183704700
:102720000A460021818B4FF6FB73194011438183C8
:1027300070470A460021818B4FF6FF3319404FF650
:10274000FF7303EA02231943818370470A4600217D
:10275000018B4FF67F7319401143018370470A467E
:102760000021018BC1F30E014FF6FF7303EA022330
:102770001943018370470A460021818B4FF67F730E
:1027800019401143818370470A460021818BC1F3B0
:102790000E014FF6FF7303EA02231943818370474A
:1027A0000A460021018C4FF6FD7319401143018444
:1027B00070470A460021018C4FF6F7731940114308
:1027C000018470470A460021018C4FF6DF731940DF
:1027D0004FF6FF7303EA02131943018470470A4658
:1027E0000021018C4FF67F7319404FF6FF7303EA07
:1027F00002131943018470470A460021018C4FF6E9
:10280000FF5319404FF6FF7303EA02231943018473
:1028100070470A460021018C4FF2FF7319404FF6B2
:10282000FF7303EA02231943018470470A4600211B
:10283000018C4DF6FF7319404FF6FF7303EA023324
:1028400019430184704730B5002301248C40A3B2A2
:10285000048C9C430484048C02FA01F5ADB22C4331
:10286000048430BD30B5002304248C40A3B2048C12
:102870009C430484048C02FA01F5ADB22C43048419
:1028800030BD70B5034600200024184618300125DD
:102890008D40ACB21D8CA5431D8409B1082909D116
:1028A00000EB6100056825F07005056005681543BB
:1028B00005600EE00D1FC5F34E052844056825F49C
:1028C000E045056005684FF6FF7606EA02263543C7
:1028D000056070BD21B1028842F00202028004E06E
:1028E00002884FF6FD731A400280704721B10288BA
:1028F00042F00402028004E002884FF6FB731A40A3
:102900000280704721B1828842F08002828004E018
:1029100082884FF67F731A408280704702884FF694
:10292000F7731A40028002880A4302807047828847
:102930004FF68F731A40828082880A4382807047E4
:1029400002894FF6F8731A40028102890A43028114
:10295000704702894FF67F731A40028102890A4349
:1029600002817047818470478185704781867047F6
:102970000187704781877047A0F840107047028830
:102980004FF6FF431A40028002880A4302807047D4
:102990000146888E70470146088F70470146888F30
:1029A00070470146B1F8400070470146888C704777
:1029B0000146088D704702460020138A0B400BB178
:1029C000012000E000207047CA430282704730B502
:1029D0000246002000230024158A05EA0103958998
:1029E00005EA010413B10CB1012000E0002030BD64
:1029F000CA4302827047000010B50446FB48844277
:102A000009D101218803FFF79FF800214FF480408E
:102A1000FFF79AF832E0F648844209D101214804D0
:102A2000FFF79FF800214FF40030FFF79AF825E0F8
:102A3000F048844209D101218804FFF792F800216F
:102A40004FF48020FFF78DF818E0EB48844209D15D
:102A50000121C804FFF785F800214FF40020FFF79B
:102A600080F80BE0E548844208D101210805FFF712
:102A700078F800214FF48010FFF773F810BD2DE9AE
:102A8000F04786B005460E460024A24600BFA14688
:102A90000027B08900B100BF2F462C8A4CF6FF708A
:102AA0000440F08804432C82AC894EF6F3100440B5
:102AB000B08831890843718908430443AC81AC8AEA
:102AC0004FF6FF400440B0890443AC8201A8FEF7F2
:102AD000B4FFC648874202D1DDF810A001E0DDF85E
:102AE0000CA0A88900F4004040B10AEBCA0000EB3A
:102AF0000A1031684900B0FBF1F807E00AEBCA00A0
:102B000000EB0A1031688900B0FBF1F86420B8FBD3
:102B1000F0F004012009642101FB1089A88900F468
:102B2000004040B1322000EBC900B0FBF1F000F0F2
:102B30000700044308E0322000EB09106421B0FBD9
:102B4000F1F000F00F0004432C8106B0BDE8F087DF
:102B50004FF41651016000218180C18001810C2158
:102B6000418100218181704710B502460020108A02
:102B70004FF2FF0318400B884C8823438C88234373
:102B8000CC8823431843108210BD0021018041806E
:102B90008180C180704721B1828942F400528281D4
:102BA00004E082894DF6FF731A4082817047F0B5C8
:102BB0000346002400260025002040F66A17B9428B
:102BC00000D100BF1846C1F3421401F01F060127CF
:102BD00007FA06F5012C01D10C3004E0022C01D1DA
:102BE000103000E014301AB107682F43076002E08C
:102BF0000768AF430760F0BD1AB1838A0B43838235
:102C000002E0838A8B4383827047028A4FF6F07317
:102C10001A400282028A0A430282704782894FF276
:102C2000FF731A40828182890A438281704721B1F1
:102C3000828942F00202828104E082894FF6FD73AC
:102C40001A4082817047028A4FF6DF731A4002826F
:102C5000028A0A430282704721B1028A42F480420A
:102C6000028204E0028A4BF6FF731A400282704728
:102C7000C1F308028280704701468888C0F30800CB
:102C80007047818941F0010181817047028BD2B286
:102C90000283028B42EA012202837047028B02F414
:102CA0007F420283028B0A430283704721B1828AEA
:102CB00042F02002828204E0828A4FF6DF731A40DB
:102CC0008282704721B1828A42F01002828204E03F
:102CD000828A4FF6EF731A408282704721B1828A4E
:102CE00042F00802828204E0828A4FF6F7731A40AB
:102CF0008282704721B1828942F40042828103E0DE
:102D00008289C2F30E028281704721B1828A42F425
:102D10000062828204E0828A4FF2FF731A4082824C
:102D20007047828A4FF6FB731A408282828A0A4376
:102D30008282704721B1828A42F00202828204E0DC
:102D4000828A4FF6FD731A40828270470246002045
:102D5000B1F5007F00D100BF13880B400BB10120FB
:102D600000E00020704701F40072B2F5007F00D14E
:102D700000BFCA430280704770B50246002400239A
:102D80000025002040F66A16B14200D100BFC1F311
:102D9000421501F01F03012606FA03F3012D02D1AB
:102DA0009689334006E0022D02D1168A334001E0B5
:102DB000968A33400C12012606FA04F41688344031
:102DC00013B10CB1012000E0002070BD10B500224D
:102DD000002340F66A14A14200D100BF0A12012468
:102DE0009440A3B2DC43048010BD000000380140D1
:102DF0000044004000480040004C004000500040AB
:102E000070477047704770477047754600F02CF860
:102E1000AE4605006946534620F00700854618B0C7
:102E200020B5FEF7DBFABDE820404FF000064FF07A
:102E300000074FF000084FF0000B21F00701AC46EF
:102E4000ACE8C009ACE8C009ACE8C009ACE8C0090E
:102E50008D46704710B50446AFF300802046BDE8AC
:102E60001040FDF7AAB9000000487047F4030020A5
:102E700010B591EA030F48BF83F0004300F182824E
:102E8000841A71EB030C05D2121943EB0C03001BDF
:102E900061EB0C01DFF824E14FEA1154A4EB135C61
:102EA0001EEA430F18BF9EEA445F73D023EA0E0365
:102EB000DCF1200E21EA045143F4801332D322FACC
:102EC0000CFE10EB0E0023FA0CFE41EB0E01CCF1D0
:102ED000200E03FA0EFE10EB0E0051F10001B1F5C9
:102EE000801FCCF1200E32D201EB045112FA0EF207
:102EF000BDE8104058BF7047401C38BF5FEA42022F
:102F000018BF7047002814BF20F0010041F10001F4
:102F10004FEA410313F5001F38BF7047A1F1C041CC
:102F200000F016BA012A43EB0302ACF1200CDCF1ED
:102F30001F0E32BF4FF0000E23FA0CF310EB03000C
:102F400041EB0451B4EB115FD0D0A1EB045101F57A
:102F5000801149085FEA300001EB04510ED350F1B3
:102F6000000038BF12FA0EFE08D1BDE81040C9E7D4
:102F7000401C38BF5FEA4202CAD1C3E7BDE8104037
:102F80004FEA410313F5001F38BF7047A1F1C0415C
:102F900000F0DEB99EEA445F08D011EA5E0FBDE89A
:102FA000104004BF01F0004100207047BDE8104010
:102FB00070B500F07FF900BF64FBBE3E0000E0FF8B
:102FC000491058BFC1F140415B1058BFC3F14043A5
:102FD0008B42EFF3008070474FEA41034FEA5353AF
:102FE000A3F58063D3F11E03C8BFD3F1210C0CDD20
:102FF0004FF0004242EAC12242EA505232FA03FC48
:103000008CEAE17CACEBE1707047102BC4BF002070
:10301000704703F5787CBCF1FF3F04D06FF00042AD
:1030200082EA2100704770B500F044F9499224808B
:1030300000207047F2E700004FEA1153A3F58063C8
:10304000D3F11E03A8BFD3F1200C08DB4FF00042E0
:1030500042EAC12252EA505232FA03F07047094262
:103060000BD4102BC4BF0020704703F5787CBCF153
:10307000FF3F05D04FF0FF3070474FF00000704722
:1030800070B500F017F900BF499224800020704706
:10309000F0E710F0004248BF4042B0FA80F310FA67
:1030A00003F10AD0C3F11D0303F580634FEA4150D9
:1030B00002EB035202EBD12170474FF00000704742
:1030C000B0FA80F310FA03F10AD0C3F11D0303F53F
:1030D00080634FEA41504FEA035202EBD12170471F
:1030E0004FF000007047000051EA030C17D41CF5A4
:1030F000801F58BFBCF5801F00F10680994218BFA1
:10310000704708BF9042704707D711F5801F58BF1E
:1031100013F5801F19D499427047894270471CF5F6
:10312000801F08D5BCF5801FF7D58B4218BF7047AC
:1031300008BF824270474FF4001C1CEB410F38BFA0
:103140001CEB430F01D28B42704770B500F0B2F810
:10315000922449004FF000514FF08053FFF730BFE9
:10316000DFF848C170B51CEA111E1EBF1CEA13151A
:103170009EEA0C0F95EA0C0F00F06F8081EA0304C1
:1031800023EA4C134EEAD47E21EA4C1141F480111B
:1031900043F48013AE44A1FB024CA0FB0365AEF1E7
:1031A0007F7E361955EB0C05A1FB034C4CF1000357
:1031B000A0FB021C16EB0C06654153F1000309420B
:1031C00018BF46F0010613F4007F0BD14FEA03311C
:1031D0004FEA0530340341EA155140EA16506FF0CA
:1031E00003020AE04FEAC3214FEAC520F40241EA94
:1031F000555140EA56506FF0020202EB2E4201EBAD
:10320000025585EACE710AD05FEA440C18BF24F05B
:10321000004450F1000041F1000120EAD47040F276
:10322000FE7C624500D270BDA84214BF4FF08044BE
:103230004FF04044002E08BF0024BEF1806FA8BFAD
:10324000A1F1C041BDE8704080F282804FF00000E3
:1032500001F1C04101F0004170479EEA0C0F0CEAF9
:10326000131518BF95EA0C0F06D04FF0000081EA45
:10327000030E0EF0004170BD00F01CF88900013E05
:1032800000F007B800F009B84FEA430C5FEA5C5C55
:1032900008D081EA030100F05BB84FEA410C5FEA15
:1032A0005C5CF6D14FF00000014970470000FF0759
:1032B0000000F87F0EF1020E2EF0030E5EF8046B94
:1032C000364205D4012A43EB030515F5001F12D839
:1032D000012841EB010C1CF5001F0CD80ED14FEA60
:1032E000D17C15F5001F0CEB4C0C0CF1020C08BF47
:1032F0004CEBD37C04E04FF0080C01E04FEAD37CA8
:103300000CEB4C0526FA05F606F00706B6F1040CA0
:1033100006D20EEB860CBDE870404CF0010C604705
:10332000DFE80CF0090B02024FF000414FF0000003
:10333000A1F5002170BD19461046012851EB01048A
:1033400018BFD4F5001484BF002001F0004170BD07
:103350000808A0F500114FEA3101704791EA030F08
:1033600010B581F000413FF58BAD83F0004300F0D4
:1033700009B8000010B591EA030F48BF83F000437D
:103380003FF57EAD841A71EB030C07D212198CF055
:10339000004C43EB0C03001B61EB0C01DFF8A4E1D4
:1033A0004FEA1154A4EB135C1EEA430F18BF9EEAC8
:1033B000445F00F0B08023EA6E03524221EA0451D8
:1033C000C3EB6E0338BF5B1EDCF1200E25D322FA5F
:1033D0000CFE10EB0E0043FA0CFE41EB0E01CCF19B
:1033E000200E03FA0EFE10EB0E0051F10001CCF19D
:1033F000200E29D412FA0EF201EB0451BDE8104060
:1034000058BF7047401C1CBFB2F1004F70470028E6
:103410000CBF491C20F00100704712EB020E43EB79
:10342000030218BF4FF0010E4EEA4202ACF1200C2D
:10343000DCF11E0E54D943FA0CFE10EB0E0051F1D4
:10344000FF31CCF11E0ED5D50EF1010E12FA0EFE93
:10345000404141EB010101EB445C5FEA5C5C10D947
:1034600010EBDE7001EB045138BFBEF1004FBDE838
:10347000104018BF704700280CBF491C20F0010005
:10348000704730D24FEAD42C11F5001124F40064B7
:103490001BD0B1FA81F20B3AA41AA41ED2F1200378
:1034A000914030FA03F31943904001EBCC71002CAA
:1034B00001EB0451BDE81040A8BF704701F1C041C5
:1034C0004FF0000001F000417047B0FA80F310FAAD
:1034D00003F100D110BDE41A173C4805C90AE4E71E
:1034E00001EB045110BD491001EB0451BDE810403F
:1034F0004FEA300002E04FF0000170474A0008BF79
:103500000042F8D0B2F5001F28BF704701F000411B
:103510004FF0000070479EEA445F07D011EA5E0F4B
:10352000BDE8104004BF002100207047BDE81040F6
:1035300070B5FFF7BFFE00BF40DFF63E83F00041ED
:10354000104670470000E0FF00000000000000008F
:10355000002F000000000700070000147F147F14F4
:1035600000242A7F2A12006264081323003649557A
:10357000225000000503000000001C224100000052
:1035800041221C000014083E08140008083E0808E8
:10359000000000A060000008080808080000606043
:1035A0000000002010080402003E5149453E000082
:1035B000427F4000004261514946002141454B3164
:1035C000001814127F10002745454539003C4A4930
:1035D00049300001710905030036494949360006A2
:1035E0004949291E0000363600000000563600000A
:1035F0000008142241000014141414140000412285
:10360000140800020151090600324959513E007C5C
:103610001211127C007F49494936003E4141412246
:10362000007F4141221C007F49494941007F09092F
:103630000901003E4149497A007F0808087F0000DF
:10364000417F4100002040413F01007F081422419A
:10365000007F40404040007F020C027F007F040852
:10366000107F003E4141413E007F09090906003EAE
:103670004151215E007F09192946004649494931D7
:103680000001017F0101003F4040403F001F2040FA
:10369000201F003F4038403F0063140814630007B8
:1036A0000870080700615149454300007F4141000F
:1036B00000552A552A55000041417F0000040201AF
:1036C000020400404040404000000102040000208D
:1036D00054545478007F48444438003844444420CB
:1036E00000384444487F00385454541800087E0978
:1036F00001020018A4A4A47C007F08040478000040
:10370000447D4000004080847D00007F10284400FC
:103710000000417F4000007C04180478007C08040D
:10372000047800384444443800FC24242418001849
:10373000242418FC007C0804040800485454542035
:1037400000043F444020003C4040207C001C2040BE
:10375000201C003C4030403C004428102844001C01
:10376000A0A0A07C004464544C44141414141414F9
:103770000000000000000000000000000000000049
:10378000000000F8000000000000003330000000DE
:1037900000100C06100C06000000000000000000E5
:1037A00040C07840C0784000043F04043F04040057
:1037B000007088FC08300000001820FF211E000067
:1037C000F008F000E018000000211C031E211E007C
:1037D00000F00888700000001E2123241927211002
:1037E00010160E00000000000000000000000000A5
:1037F000000000E01804020000000007182040004C
:1038000000020418E000000000402018070000003B
:10381000404080F0804040000202010F010202009F
:10382000000000F0000000000101011F0101010083
:10383000000000000000000080B0700000000000E8
:103840000000000000000000000101010101010171
:103850000000000000000000003030000000000008
:1038600000000000806018040060180601000000DD
:1038700000E010080810E000000F102020100F00DA
:10388000001010F8000000000020203F2020000061
:1038900000700808088870000030282422213000B9
:1038A00000300888884830000018202020110E00C1
:1038B0000000C02010F8000000070424243F24006A
:1038C00000F80888880808000019212020110E003F
:1038D00000E0108888180000000F112020110E0051
:1038E00000380808C83808000000003F0000000049
:1038F0000070880808887000001C222121221C000A
:1039000000E010080810E0000000312222110F0032
:10391000000000C0C00000000000003030000000C7
:103920000000008000000000000080600000000037
:103930000000804020100800000102040810200050
:10394000404040404040400004040404040404009B
:103950000008102040800000002010080402010030
:10396000007048080808F000000000303601000030
:10397000C030C828E810E0000718272423140B00E3
:103980000000C038E0000000203C2302022738205D
:1039900008F8888888700000203F202020110E0041
:1039A000C030080808083800071820202010080038
:1039B00008F808080810E000203F202020100F0021
:1039C00008F88888E8081000203F202023201800ED
:1039D00008F88888E8081000203F20000300000055
:1039E000C03008080838000007182020221E0200F6
:1039F00008F808000008F808203F210101213F20B5
:103A0000000808F8080800000020203F20200000DF
:103A100000000808F8080800C08080807F000000CF
:103A200008F888C028180800203F20012638200008
:103A300008F8080000000000203F2020202030006F
:103A400008F8F800F8F80800203F003F003F200089
:103A500008F830C00008F808203F200007183F0091
:103A6000E01008080810E0000F10202020100F00C0
:103A700008F808080808F000203F210101010000B3
:103A8000E01008080810E0000F18242438504F00F8
:103A900008F8888888887000203F2000030C3020B8
:103AA00000708808080838000038202121221C00F6
:103AB000180808F8080818000000203F200000003F
:103AC00008F808000008F808001F202020201F0028
:103AD0000878880000C83808000007380E01000088
:103AE000F80800F80008F800033C0700073C030052
:103AF000081868808068180820302C03032C3020B8
:103B00000838C800C83808000000203F2000000026
:103B100010080808C838080020382621202018007E
:103B2000000000FE020202000000007F4040400052
:103B3000000C30C000000000000000010638C0008A
:103B400000020202FE000000004040407F00000032
:103B50000000040202020400000000000000000057
:103B60000000000000000000808080808080808055
:103B7000000202040000000000000000000000003D
:103B800000008080808000000019242222223F2033
:103B900008F8008080000000003F112020110E0076
:103BA0000000008080800000000E11202020110005
:103BB000000000808088F800000E112020103F20B7
:103BC0000000808080800000001F2222222213003B
:103BD000008080F0888888180020203F2020000086
:103BE0000000808080808000006B9494949360003B
:103BF00008F8008080800000203F210000203F2046
:103C000000809898000000000020203F2020000045
:103C1000000000809898000000C08080807F000035
:103C200008F8000080808000203F24022D30200012
:103C3000000808F8000000000020203F20200000BD
:103C40008080808080808000203F20003F20003FD7
:103C50008080008080800000203F210000203F20E5
:103C60000000808080800000001F202020201F0096
:103C7000808000808000000080FFA12020110E00C5
:103C80000000008080808000000E112020A0FF80B6
:103C9000808080008080800020203F212000010063
:103CA00000008080808080000033242424241900B8
:103CB000008080E0808000000000001F20200000C5
:103CC0008080000000808000001F202020103F2006
:103CD000808080000080808000010E300806010096
:103CE00080800080008080800F300C030C300F003B
:103CF00000808000808080000020312E0E31200066
:103D0000808080000080808080818E701806010095
:103D100000808080808080000021302C22213000B3
:103D200000000000807C020200000000003F4040D4
:103D300000000000FF00000000000000FF00000085
:103D40000002027C800000000040403F00000000B4
:103D5000000601010202040400000000000000004F
:103D6000803D000800000020B40300002801000886
:103D7000083F0008B4030020A406000084010008E6
:103D80001184A24A04B00901020304060708091BB2
:103D9000F010012AFF050215F01B0F04012AFF0590
:103DA00002130F18094040405F55555575041A5FBE
:103DB0000C091121080C11200F09498979090909F9
:103DC0000F201F112FFE02424ACA4A030413420267
:103DD000FE000E14FF40504C4340404F50505C409A
:103DE000FF1BF888012AFF050215F81B1F08012A8E
:103DF0007F200B109F80E23B808201000916E2A227
:103E0000928A86828080041840807F172424A4FE32
:103E1000A3221B22CCAA011415080601FF2B0104C2
:103E2000010511FF0202025808101010FF1090083F
:103E3000C3021108080F100444827F0180804043B0
:103E40002C10284681A018094040484848C8784F9F
:103E50000605154848404000091503121222225257
:103E60008A063C106080BA19040B11C030FB1E405A
:103E70004043407F061C7F424106094FC02941084C
:103E80000B1110D030FF30D0121C10101F3D080451
:103E900002019E0D1101020408211116FE222222A8
:103EA000FE0712FE828292A29E100880601F0242CC
:103EB000827F0F11FF402F102C438011000B1490B4
:103EC000884C57A42454548C841808010180422241
:103ED0001A07441D423E01018AF9E1000D14E42451
:103EE0002CB4252624B42C24E404180AFF02011E55
:103EF0001212121E418601162D010203040430091C
:083F0000060708090204060887
:04000005080000ED02
:00000001FF
